{
  "_format": "hh-sol-artifact-1",
  "contractName": "EnergyTrading",
  "sourceName": "contracts/EnergyTrading.sol",
  "abi": [
    {
      "inputs": [
        {
          "internalType": "address",
          "name": "_energyToken",
          "type": "address"
        },
        {
          "internalType": "address",
          "name": "_paymentToken",
          "type": "address"
        },
        {
          "internalType": "address",
          "name": "_priceFeed",
          "type": "address"
        },
        {
          "internalType": "address",
          "name": "_feeCollector",
          "type": "address"
        },
        {
          "internalType": "address",
          "name": "_governanceAddress",
          "type": "address"
        }
      ],
      "stateMutability": "nonpayable",
      "type": "constructor"
    },
    {
      "inputs": [],
      "name": "AccessControlBadConfirmation",
      "type": "error"
    },
    {
      "inputs": [
        {
          "internalType": "address",
          "name": "account",
          "type": "address"
        },
        {
          "internalType": "bytes32",
          "name": "neededRole",
          "type": "bytes32"
        }
      ],
      "name": "AccessControlUnauthorizedAccount",
      "type": "error"
    },
    {
      "inputs": [],
      "name": "EnforcedPause",
      "type": "error"
    },
    {
      "inputs": [],
      "name": "ExpectedPause",
      "type": "error"
    },
    {
      "inputs": [],
      "name": "ReentrancyGuardReentrantCall",
      "type": "error"
    },
    {
      "anonymous": false,
      "inputs": [
        {
          "indexed": false,
          "internalType": "uint256",
          "name": "newFeePercent",
          "type": "uint256"
        }
      ],
      "name": "FeeUpdated",
      "type": "event"
    },
    {
      "anonymous": false,
      "inputs": [
        {
          "indexed": true,
          "internalType": "uint256",
          "name": "offerId",
          "type": "uint256"
        },
        {
          "indexed": true,
          "internalType": "address",
          "name": "seller",
          "type": "address"
        }
      ],
      "name": "OfferCancelled",
      "type": "event"
    },
    {
      "anonymous": false,
      "inputs": [
        {
          "indexed": true,
          "internalType": "uint256",
          "name": "offerId",
          "type": "uint256"
        },
        {
          "indexed": true,
          "internalType": "address",
          "name": "seller",
          "type": "address"
        },
        {
          "indexed": false,
          "internalType": "uint256",
          "name": "energyAmount",
          "type": "uint256"
        },
        {
          "indexed": false,
          "internalType": "uint256",
          "name": "pricePerKwh",
          "type": "uint256"
        }
      ],
      "name": "OfferCreated",
      "type": "event"
    },
    {
      "anonymous": false,
      "inputs": [
        {
          "indexed": false,
          "internalType": "address",
          "name": "account",
          "type": "address"
        }
      ],
      "name": "Paused",
      "type": "event"
    },
    {
      "anonymous": false,
      "inputs": [
        {
          "indexed": true,
          "internalType": "bytes32",
          "name": "role",
          "type": "bytes32"
        },
        {
          "indexed": true,
          "internalType": "bytes32",
          "name": "previousAdminRole",
          "type": "bytes32"
        },
        {
          "indexed": true,
          "internalType": "bytes32",
          "name": "newAdminRole",
          "type": "bytes32"
        }
      ],
      "name": "RoleAdminChanged",
      "type": "event"
    },
    {
      "anonymous": false,
      "inputs": [
        {
          "indexed": true,
          "internalType": "bytes32",
          "name": "role",
          "type": "bytes32"
        },
        {
          "indexed": true,
          "internalType": "address",
          "name": "account",
          "type": "address"
        },
        {
          "indexed": true,
          "internalType": "address",
          "name": "sender",
          "type": "address"
        }
      ],
      "name": "RoleGranted",
      "type": "event"
    },
    {
      "anonymous": false,
      "inputs": [
        {
          "indexed": true,
          "internalType": "bytes32",
          "name": "role",
          "type": "bytes32"
        },
        {
          "indexed": true,
          "internalType": "address",
          "name": "account",
          "type": "address"
        },
        {
          "indexed": true,
          "internalType": "address",
          "name": "sender",
          "type": "address"
        }
      ],
      "name": "RoleRevoked",
      "type": "event"
    },
    {
      "anonymous": false,
      "inputs": [
        {
          "indexed": true,
          "internalType": "uint256",
          "name": "tradeId",
          "type": "uint256"
        }
      ],
      "name": "TradeCancelled",
      "type": "event"
    },
    {
      "anonymous": false,
      "inputs": [
        {
          "indexed": true,
          "internalType": "uint256",
          "name": "tradeId",
          "type": "uint256"
        }
      ],
      "name": "TradeCompleted",
      "type": "event"
    },
    {
      "anonymous": false,
      "inputs": [
        {
          "indexed": true,
          "internalType": "uint256",
          "name": "tradeId",
          "type": "uint256"
        },
        {
          "indexed": true,
          "internalType": "uint256",
          "name": "offerId",
          "type": "uint256"
        },
        {
          "indexed": true,
          "internalType": "address",
          "name": "buyer",
          "type": "address"
        },
        {
          "indexed": false,
          "internalType": "address",
          "name": "seller",
          "type": "address"
        },
        {
          "indexed": false,
          "internalType": "uint256",
          "name": "energyAmount",
          "type": "uint256"
        },
        {
          "indexed": false,
          "internalType": "uint256",
          "name": "totalPrice",
          "type": "uint256"
        }
      ],
      "name": "TradeExecuted",
      "type": "event"
    },
    {
      "anonymous": false,
      "inputs": [
        {
          "indexed": false,
          "internalType": "address",
          "name": "account",
          "type": "address"
        }
      ],
      "name": "Unpaused",
      "type": "event"
    },
    {
      "inputs": [],
      "name": "DEFAULT_ADMIN_ROLE",
      "outputs": [
        {
          "internalType": "bytes32",
          "name": "",
          "type": "bytes32"
        }
      ],
      "stateMutability": "view",
      "type": "function"
    },
    {
      "inputs": [],
      "name": "FEE_DENOMINATOR",
      "outputs": [
        {
          "internalType": "uint256",
          "name": "",
          "type": "uint256"
        }
      ],
      "stateMutability": "view",
      "type": "function"
    },
    {
      "inputs": [],
      "name": "GOVERNANCE_ROLE",
      "outputs": [
        {
          "internalType": "bytes32",
          "name": "",
          "type": "bytes32"
        }
      ],
      "stateMutability": "view",
      "type": "function"
    },
    {
      "inputs": [
        {
          "internalType": "uint256",
          "name": "_offerId",
          "type": "uint256"
        }
      ],
      "name": "acceptOffer",
      "outputs": [
        {
          "internalType": "uint256",
          "name": "",
          "type": "uint256"
        }
      ],
      "stateMutability": "nonpayable",
      "type": "function"
    },
    {
      "inputs": [
        {
          "internalType": "uint256",
          "name": "_offerId",
          "type": "uint256"
        }
      ],
      "name": "cancelOffer",
      "outputs": [],
      "stateMutability": "nonpayable",
      "type": "function"
    },
    {
      "inputs": [
        {
          "internalType": "uint256",
          "name": "_energyAmount",
          "type": "uint256"
        },
        {
          "internalType": "uint256",
          "name": "_pricePerKwh",
          "type": "uint256"
        },
        {
          "internalType": "uint256",
          "name": "_expiresAt",
          "type": "uint256"
        },
        {
          "internalType": "bool",
          "name": "_isHybrid",
          "type": "bool"
        },
        {
          "internalType": "string",
          "name": "_mobileMoneyReference",
          "type": "string"
        }
      ],
      "name": "createOffer",
      "outputs": [
        {
          "internalType": "uint256",
          "name": "",
          "type": "uint256"
        }
      ],
      "stateMutability": "nonpayable",
      "type": "function"
    },
    {
      "inputs": [],
      "name": "energyToken",
      "outputs": [
        {
          "internalType": "contract IEnergyToken",
          "name": "",
          "type": "address"
        }
      ],
      "stateMutability": "view",
      "type": "function"
    },
    {
      "inputs": [],
      "name": "feeCollector",
      "outputs": [
        {
          "internalType": "address",
          "name": "",
          "type": "address"
        }
      ],
      "stateMutability": "view",
      "type": "function"
    },
    {
      "inputs": [],
      "name": "getCurrentOfferId",
      "outputs": [
        {
          "internalType": "uint256",
          "name": "",
          "type": "uint256"
        }
      ],
      "stateMutability": "view",
      "type": "function"
    },
    {
      "inputs": [],
      "name": "getCurrentTradeId",
      "outputs": [
        {
          "internalType": "uint256",
          "name": "",
          "type": "uint256"
        }
      ],
      "stateMutability": "view",
      "type": "function"
    },
    {
      "inputs": [],
      "name": "getLatestPrice",
      "outputs": [
        {
          "internalType": "int256",
          "name": "",
          "type": "int256"
        }
      ],
      "stateMutability": "view",
      "type": "function"
    },
    {
      "inputs": [
        {
          "internalType": "uint256",
          "name": "_offerId",
          "type": "uint256"
        }
      ],
      "name": "getOffer",
      "outputs": [
        {
          "components": [
            {
              "internalType": "uint256",
              "name": "offerId",
              "type": "uint256"
            },
            {
              "internalType": "address",
              "name": "seller",
              "type": "address"
            },
            {
              "internalType": "uint256",
              "name": "energyAmount",
              "type": "uint256"
            },
            {
              "internalType": "uint256",
              "name": "pricePerKwh",
              "type": "uint256"
            },
            {
              "internalType": "uint256",
              "name": "totalPrice",
              "type": "uint256"
            },
            {
              "internalType": "uint256",
              "name": "expiresAt",
              "type": "uint256"
            },
            {
              "internalType": "bool",
              "name": "isActive",
              "type": "bool"
            },
            {
              "internalType": "bool",
              "name": "isHybrid",
              "type": "bool"
            },
            {
              "internalType": "string",
              "name": "mobileMoneyReference",
              "type": "string"
            }
          ],
          "internalType": "struct EnergyTrading.EnergyOffer",
          "name": "",
          "type": "tuple"
        }
      ],
      "stateMutability": "view",
      "type": "function"
    },
    {
      "inputs": [
        {
          "internalType": "bytes32",
          "name": "role",
          "type": "bytes32"
        }
      ],
      "name": "getRoleAdmin",
      "outputs": [
        {
          "internalType": "bytes32",
          "name": "",
          "type": "bytes32"
        }
      ],
      "stateMutability": "view",
      "type": "function"
    },
    {
      "inputs": [
        {
          "internalType": "uint256",
          "name": "_tradeId",
          "type": "uint256"
        }
      ],
      "name": "getTrade",
      "outputs": [
        {
          "components": [
            {
              "internalType": "uint256",
              "name": "tradeId",
              "type": "uint256"
            },
            {
              "internalType": "uint256",
              "name": "offerId",
              "type": "uint256"
            },
            {
              "internalType": "address",
              "name": "buyer",
              "type": "address"
            },
            {
              "internalType": "address",
              "name": "seller",
              "type": "address"
            },
            {
              "internalType": "uint256",
              "name": "energyAmount",
              "type": "uint256"
            },
            {
              "internalType": "uint256",
              "name": "totalPrice",
              "type": "uint256"
            },
            {
              "internalType": "uint256",
              "name": "timestamp",
              "type": "uint256"
            },
            {
              "internalType": "enum EnergyTrading.TradeStatus",
              "name": "status",
              "type": "uint8"
            },
            {
              "internalType": "string",
              "name": "mobileMoneyReference",
              "type": "string"
            }
          ],
          "internalType": "struct EnergyTrading.Trade",
          "name": "",
          "type": "tuple"
        }
      ],
      "stateMutability": "view",
      "type": "function"
    },
    {
      "inputs": [
        {
          "internalType": "address",
          "name": "_user",
          "type": "address"
        }
      ],
      "name": "getUserOffers",
      "outputs": [
        {
          "internalType": "uint256[]",
          "name": "",
          "type": "uint256[]"
        }
      ],
      "stateMutability": "view",
      "type": "function"
    },
    {
      "inputs": [
        {
          "internalType": "address",
          "name": "_user",
          "type": "address"
        }
      ],
      "name": "getUserProfile",
      "outputs": [
        {
          "components": [
            {
              "internalType": "uint256",
              "name": "totalEnergyTraded",
              "type": "uint256"
            },
            {
              "internalType": "uint256",
              "name": "totalSpent",
              "type": "uint256"
            },
            {
              "internalType": "uint256",
              "name": "totalEarned",
              "type": "uint256"
            },
            {
              "internalType": "uint256",
              "name": "successfulTrades",
              "type": "uint256"
            },
            {
              "internalType": "uint256",
              "name": "reputationScore",
              "type": "uint256"
            }
          ],
          "internalType": "struct EnergyTrading.UserProfile",
          "name": "",
          "type": "tuple"
        }
      ],
      "stateMutability": "view",
      "type": "function"
    },
    {
      "inputs": [
        {
          "internalType": "address",
          "name": "_user",
          "type": "address"
        }
      ],
      "name": "getUserTrades",
      "outputs": [
        {
          "internalType": "uint256[]",
          "name": "",
          "type": "uint256[]"
        }
      ],
      "stateMutability": "view",
      "type": "function"
    },
    {
      "inputs": [
        {
          "internalType": "bytes32",
          "name": "role",
          "type": "bytes32"
        },
        {
          "internalType": "address",
          "name": "account",
          "type": "address"
        }
      ],
      "name": "grantRole",
      "outputs": [],
      "stateMutability": "nonpayable",
      "type": "function"
    },
    {
      "inputs": [
        {
          "internalType": "bytes32",
          "name": "role",
          "type": "bytes32"
        },
        {
          "internalType": "address",
          "name": "account",
          "type": "address"
        }
      ],
      "name": "hasRole",
      "outputs": [
        {
          "internalType": "bool",
          "name": "",
          "type": "bool"
        }
      ],
      "stateMutability": "view",
      "type": "function"
    },
    {
      "inputs": [
        {
          "internalType": "uint256",
          "name": "",
          "type": "uint256"
        }
      ],
      "name": "offers",
      "outputs": [
        {
          "internalType": "uint256",
          "name": "offerId",
          "type": "uint256"
        },
        {
          "internalType": "address",
          "name": "seller",
          "type": "address"
        },
        {
          "internalType": "uint256",
          "name": "energyAmount",
          "type": "uint256"
        },
        {
          "internalType": "uint256",
          "name": "pricePerKwh",
          "type": "uint256"
        },
        {
          "internalType": "uint256",
          "name": "totalPrice",
          "type": "uint256"
        },
        {
          "internalType": "uint256",
          "name": "expiresAt",
          "type": "uint256"
        },
        {
          "internalType": "bool",
          "name": "isActive",
          "type": "bool"
        },
        {
          "internalType": "bool",
          "name": "isHybrid",
          "type": "bool"
        },
        {
          "internalType": "string",
          "name": "mobileMoneyReference",
          "type": "string"
        }
      ],
      "stateMutability": "view",
      "type": "function"
    },
    {
      "inputs": [],
      "name": "pause",
      "outputs": [],
      "stateMutability": "nonpayable",
      "type": "function"
    },
    {
      "inputs": [],
      "name": "paused",
      "outputs": [
        {
          "internalType": "bool",
          "name": "",
          "type": "bool"
        }
      ],
      "stateMutability": "view",
      "type": "function"
    },
    {
      "inputs": [],
      "name": "paymentToken",
      "outputs": [
        {
          "internalType": "contract IERC20",
          "name": "",
          "type": "address"
        }
      ],
      "stateMutability": "view",
      "type": "function"
    },
    {
      "inputs": [],
      "name": "platformFeePercent",
      "outputs": [
        {
          "internalType": "uint256",
          "name": "",
          "type": "uint256"
        }
      ],
      "stateMutability": "view",
      "type": "function"
    },
    {
      "inputs": [],
      "name": "priceFeed",
      "outputs": [
        {
          "internalType": "contract AggregatorV3Interface",
          "name": "",
          "type": "address"
        }
      ],
      "stateMutability": "view",
      "type": "function"
    },
    {
      "inputs": [
        {
          "internalType": "bytes32",
          "name": "role",
          "type": "bytes32"
        },
        {
          "internalType": "address",
          "name": "callerConfirmation",
          "type": "address"
        }
      ],
      "name": "renounceRole",
      "outputs": [],
      "stateMutability": "nonpayable",
      "type": "function"
    },
    {
      "inputs": [
        {
          "internalType": "bytes32",
          "name": "role",
          "type": "bytes32"
        },
        {
          "internalType": "address",
          "name": "account",
          "type": "address"
        }
      ],
      "name": "revokeRole",
      "outputs": [],
      "stateMutability": "nonpayable",
      "type": "function"
    },
    {
      "inputs": [
        {
          "internalType": "bytes4",
          "name": "interfaceId",
          "type": "bytes4"
        }
      ],
      "name": "supportsInterface",
      "outputs": [
        {
          "internalType": "bool",
          "name": "",
          "type": "bool"
        }
      ],
      "stateMutability": "view",
      "type": "function"
    },
    {
      "inputs": [
        {
          "internalType": "uint256",
          "name": "",
          "type": "uint256"
        }
      ],
      "name": "trades",
      "outputs": [
        {
          "internalType": "uint256",
          "name": "tradeId",
          "type": "uint256"
        },
        {
          "internalType": "uint256",
          "name": "offerId",
          "type": "uint256"
        },
        {
          "internalType": "address",
          "name": "buyer",
          "type": "address"
        },
        {
          "internalType": "address",
          "name": "seller",
          "type": "address"
        },
        {
          "internalType": "uint256",
          "name": "energyAmount",
          "type": "uint256"
        },
        {
          "internalType": "uint256",
          "name": "totalPrice",
          "type": "uint256"
        },
        {
          "internalType": "uint256",
          "name": "timestamp",
          "type": "uint256"
        },
        {
          "internalType": "enum EnergyTrading.TradeStatus",
          "name": "status",
          "type": "uint8"
        },
        {
          "internalType": "string",
          "name": "mobileMoneyReference",
          "type": "string"
        }
      ],
      "stateMutability": "view",
      "type": "function"
    },
    {
      "inputs": [],
      "name": "unpause",
      "outputs": [],
      "stateMutability": "nonpayable",
      "type": "function"
    },
    {
      "inputs": [
        {
          "internalType": "uint256",
          "name": "_newFeePercent",
          "type": "uint256"
        }
      ],
      "name": "updateFee",
      "outputs": [],
      "stateMutability": "nonpayable",
      "type": "function"
    },
    {
      "inputs": [
        {
          "internalType": "address",
          "name": "",
          "type": "address"
        },
        {
          "internalType": "uint256",
          "name": "",
          "type": "uint256"
        }
      ],
      "name": "userOffers",
      "outputs": [
        {
          "internalType": "uint256",
          "name": "",
          "type": "uint256"
        }
      ],
      "stateMutability": "view",
      "type": "function"
    },
    {
      "inputs": [
        {
          "internalType": "address",
          "name": "",
          "type": "address"
        }
      ],
      "name": "userProfiles",
      "outputs": [
        {
          "internalType": "uint256",
          "name": "totalEnergyTraded",
          "type": "uint256"
        },
        {
          "internalType": "uint256",
          "name": "totalSpent",
          "type": "uint256"
        },
        {
          "internalType": "uint256",
          "name": "totalEarned",
          "type": "uint256"
        },
        {
          "internalType": "uint256",
          "name": "successfulTrades",
          "type": "uint256"
        },
        {
          "internalType": "uint256",
          "name": "reputationScore",
          "type": "uint256"
        }
      ],
      "stateMutability": "view",
      "type": "function"
    },
    {
      "inputs": [
        {
          "internalType": "address",
          "name": "",
          "type": "address"
        },
        {
          "internalType": "uint256",
          "name": "",
          "type": "uint256"
        }
      ],
      "name": "userTrades",
      "outputs": [
        {
          "internalType": "uint256",
          "name": "",
          "type": "uint256"
        }
      ],
      "stateMutability": "view",
      "type": "function"
    }
  ],
  "bytecode": "0x60806040526002600d553480156200001657600080fd5b506040516200267c3803806200267c833981016040819052620000399162000358565b600180556001600160a01b038516620000995760405162461bcd60e51b815260206004820152601460248201527f496e76616c696420656e6572677920746f6b656e00000000000000000000000060448201526064015b60405180910390fd5b6001600160a01b038416620000f15760405162461bcd60e51b815260206004820152601560248201527f496e76616c6964207061796d656e7420746f6b656e0000000000000000000000604482015260640162000090565b6001600160a01b0383166200013e5760405162461bcd60e51b8152602060048201526012602482015271125b9d985b1a59081c1c9a58d9481999595960721b604482015260640162000090565b6001600160a01b038216620001965760405162461bcd60e51b815260206004820152601560248201527f496e76616c69642066656520636f6c6c6563746f720000000000000000000000604482015260640162000090565b6001600160a01b038116620001ee5760405162461bcd60e51b815260206004820152601a60248201527f496e76616c696420676f7665726e616e63652061646472657373000000000000604482015260640162000090565b600580546001600160a01b038088166001600160a01b0319928316179092556006805487841690831617905560078054868416908316179055600e805492851692909116919091179055620002456000826200028c565b50620002727f71840dc4906352362b0cdaf79870196c8e42acafade72d5d5a6d59291253ceb1826200028c565b50620002806000336200028c565b505050505050620003c8565b6000828152602081815260408083206001600160a01b038516845290915281205460ff1662000331576000838152602081815260408083206001600160a01b03861684529091529020805460ff19166001179055620002e83390565b6001600160a01b0316826001600160a01b0316847f2f8788117e7eff1d82e926ec794901d17c78024a50270940304540a733656f0d60405160405180910390a450600162000335565b5060005b92915050565b80516001600160a01b03811681146200035357600080fd5b919050565b600080600080600060a086880312156200037157600080fd5b6200037c866200033b565b94506200038c602087016200033b565b93506200039c604087016200033b565b9250620003ac606087016200033b565b9150620003bc608087016200033b565b90509295509295909350565b6122a480620003d86000396000f3fe608060405234801561001057600080fd5b50600436106102065760003560e01c80638c639a851161011a578063bd5fec65116100ad578063d547741f1161007c578063d547741f14610517578063d669eff41461052a578063d73792a914610532578063ef706adf1461053a578063f36c8f5c1461054d57600080fd5b8063bd5fec65146104cb578063c3b89c30146104de578063c415b95c146104f1578063c815729d1461050457600080fd5b8063927c7742116100e9578063927c774214610448578063987ee1561461045b578063a217fddf146104b0578063b1b1ffab146104b857600080fd5b80638c639a85146104115780638e15f4731461041a5780639012c4a81461042257806391d148541461043557600080fd5b806336568abe1161019d5780635c975abb1161016c5780635c975abb146103a3578063661d2c2c146103ae578063741bef1a146103ce5780638456cb59146103e15780638a72ea6a146103e957600080fd5b806336568abe146103555780633f4ba83a146103685780634579268a146103705780634ec7fb811461039057600080fd5b80632db25e05116101d95780632db25e05146102905780632f2ff15d146102b05780633013ce29146102c5578063332d56d7146102f057600080fd5b806301ffc9a71461020b5780631243d82b146102335780631e6c598e14610245578063248a9ca31461026d575b600080fd5b61021e610219366004611b88565b610562565b60405190151581526020015b60405180910390f35b6003545b60405190815260200161022a565b610258610253366004611bb9565b610599565b60405161022a99989796959493929190611c50565b61023761027b366004611bb9565b60009081526020819052604090206001015490565b6102a361029e366004611bb9565b61067f565b60405161022a9190611cbb565b6102c36102be366004611d6d565b6107c6565b005b6006546102d8906001600160a01b031681565b6040516001600160a01b03909116815260200161022a565b61032d6102fe366004611d99565b600a60205260009081526040902080546001820154600283015460038401546004909401549293919290919085565b604080519586526020860194909452928401919091526060830152608082015260a00161022a565b6102c3610363366004611d6d565b6107f1565b6102c3610829565b61038361037e366004611bb9565b61084c565b60405161022a9190611db4565b6005546102d8906001600160a01b031681565b60025460ff1661021e565b6103c16103bc366004611d99565b61093c565b60405161022a9190611e2d565b6007546102d8906001600160a01b031681565b6102c36109a8565b6103fc6103f7366004611bb9565b6109c8565b60405161022a99989796959493929190611e71565b610237600d5481565b610237610a2b565b6102c3610430366004611bb9565b610ab0565b61021e610443366004611d6d565b610b49565b6103c1610456366004611d99565b610b72565b61046e610469366004611d99565b610bdc565b60405161022a9190600060a082019050825182526020830151602083015260408301516040830152606083015160608301526080830151608083015292915050565b610237600081565b6102376104c6366004611ec2565b610c66565b6102376104d9366004611ec2565b610c97565b6102376104ec366004611f10565b610cb3565b600e546102d8906001600160a01b031681565b610237610512366004611bb9565b610fb3565b6102c3610525366004611d6d565b611757565b600454610237565b610237606481565b6102c3610548366004611bb9565b61177c565b61023760008051602061224f83398151915281565b60006001600160e01b03198216637965db0b60e01b148061059357506301ffc9a760e01b6001600160e01b03198316145b92915050565b600960205260009081526040902080546001820154600283015460038401546004850154600586015460068701546007880154600889018054989997986001600160a01b0397881698969097169694959394929360ff909216926105fc90611ff1565b80601f016020809104026020016040519081016040528092919081815260200182805461062890611ff1565b80156106755780601f1061064a57610100808354040283529160200191610675565b820191906000526020600020905b81548152906001019060200180831161065857829003601f168201915b5050505050905089565b610687611b19565b6000828152600960209081526040918290208251610120810184528154815260018201549281019290925260028101546001600160a01b0390811693830193909352600380820154909316606083015260048101546080830152600581015460a0830152600681015460c083015260078101549192909160e084019160ff9091169081111561071857610718611bd2565b600381111561072957610729611bd2565b815260200160088201805461073d90611ff1565b80601f016020809104026020016040519081016040528092919081815260200182805461076990611ff1565b80156107b65780601f1061078b576101008083540402835291602001916107b6565b820191906000526020600020905b81548152906001019060200180831161079957829003601f168201915b5050505050815250509050919050565b6000828152602081905260409020600101546107e1816118d3565b6107eb83836118dd565b50505050565b6001600160a01b038116331461081a5760405163334bd91960e11b815260040160405180910390fd5b610824828261196f565b505050565b60008051602061224f833981519152610841816118d3565b6108496119da565b50565b6108a86040518061012001604052806000815260200160006001600160a01b0316815260200160008152602001600081526020016000815260200160008152602001600015158152602001600015158152602001606081525090565b6000828152600860209081526040918290208251610120810184528154815260018201546001600160a01b0316928101929092526002810154928201929092526003820154606082015260048201546080820152600582015460a0820152600682015460ff808216151560c08401526101009182900416151560e08301526007830180549293929184019161073d90611ff1565b6001600160a01b0381166000908152600b602090815260409182902080548351818402810184019094528084526060939283018282801561099c57602002820191906000526020600020905b815481526020019060010190808311610988575b50505050509050919050565b60008051602061224f8339815191526109c0816118d3565b610849611a2c565b6008602052600090815260409020805460018201546002830154600384015460048501546005860154600687015460078801805497986001600160a01b0390971697959694959394929360ff80841694610100909404169291906105fc90611ff1565b600080600760009054906101000a90046001600160a01b03166001600160a01b031663feaf968c6040518163ffffffff1660e01b815260040160a060405180830381865afa158015610a81573d6000803e3d6000fd5b505050506040513d601f19601f82011682018060405250810190610aa59190612045565b509195945050505050565b60008051602061224f833981519152610ac8816118d3565b600a821115610b0d5760405162461bcd60e51b815260206004820152600c60248201526b08ccaca40e8dede40d0d2ced60a31b60448201526064015b60405180910390fd5b600d8290556040518281527f8c4d35e54a3f2ef1134138fd8ea3daee6a3c89e10d2665996babdf70261e2c769060200160405180910390a15050565b6000918252602082815260408084206001600160a01b0393909316845291905290205460ff1690565b6001600160a01b0381166000908152600c602090815260409182902080548351818402810184019094528084526060939283018282801561099c57602002820191906000526020600020908154815260200190600101908083116109885750505050509050919050565b610c0e6040518060a0016040528060008152602001600081526020016000815260200160008152602001600081525090565b506001600160a01b03166000908152600a6020908152604091829020825160a0810184528154815260018201549281019290925260028101549282019290925260038201546060820152600490910154608082015290565b600c6020528160005260406000208181548110610c8257600080fd5b90600052602060002001600091509150505481565b600b6020528160005260406000208181548110610c8257600080fd5b6000610cbd611a69565b610cc5611a8f565b60008611610d0d5760405162461bcd60e51b8152602060048201526015602482015274125b9d985b1a5908195b995c99de48185b5bdd5b9d605a1b6044820152606401610b04565b60008511610d4d5760405162461bcd60e51b815260206004820152600d60248201526c496e76616c696420707269636560981b6044820152606401610b04565b428411610d8d5760405162461bcd60e51b815260206004820152600e60248201526d496e76616c69642065787069727960901b6044820152606401610b04565b600554604051636e27d88960e01b8152600481018890526001600160a01b0390911690636e27d88990602401600060405180830381600087803b158015610dd357600080fd5b505af1158015610de7573d6000803e3d6000fd5b505050506000600360008154610dfc906120ab565b918290555090506000670de0b6b3a7640000610e18888a6120c4565b610e2291906120db565b9050604051806101200160405280838152602001336001600160a01b03168152602001898152602001888152602001828152602001878152602001600115158152602001861515815260200185815250600860008481526020019081526020016000206000820151816000015560208201518160010160006101000a8154816001600160a01b0302191690836001600160a01b0316021790555060408201518160020155606082015181600301556080820151816004015560a0820151816005015560c08201518160060160006101000a81548160ff02191690831515021790555060e08201518160060160016101000a81548160ff021916908315150217905550610100820151816007019081610f3a919061214b565b5050336000818152600b6020908152604080832080546001810182559084529282902090920186905581518c81529081018b905291925084917fbf26a47e2418fff23bee5882ae59627d33e81fa75ab2b1fa08de6cf5f2fa3761910160405180910390a3509050610faa60018055565b95945050505050565b6000610fbd611a69565b610fc5611a8f565b6000828152600860205260409020600681015460ff1661101a5760405162461bcd60e51b815260206004820152601060248201526f4f66666572206e6f742061637469766560801b6044820152606401610b04565b8060050154421061105d5760405162461bcd60e51b815260206004820152600d60248201526c13d999995c88195e1c1a5c9959609a1b6044820152606401610b04565b60018101546001600160a01b031633036110b05760405162461bcd60e51b815260206004820152601460248201527321b0b73737ba10313abc9037bbb71037b33332b960611b6044820152606401610b04565b60006064600d5483600401546110c691906120c4565b6110d091906120db565b905060008183600401546110e4919061220b565b60065460018501546040516323b872dd60e01b81523360048201526001600160a01b0391821660248201526044810184905292935016906323b872dd906064016020604051808303816000875af1158015611143573d6000803e3d6000fd5b505050506040513d601f19601f82011682018060405250810190611167919061221e565b6111a45760405162461bcd60e51b815260206004820152600e60248201526d14185e5b595b9d0819985a5b195960921b6044820152606401610b04565b600654600e546040516323b872dd60e01b81523360048201526001600160a01b039182166024820152604481018590529116906323b872dd906064016020604051808303816000875af11580156111ff573d6000803e3d6000fd5b505050506040513d601f19601f82011682018060405250810190611223919061221e565b6112655760405162461bcd60e51b8152602060048201526013602482015272119959481d1c985b9cd9995c8819985a5b1959606a1b6044820152606401610b04565b6005546002840154604051637c40532560e01b81526001600160a01b0390921691637c4053259161129c9160040190815260200190565b600060405180830381600087803b1580156112b657600080fd5b505af11580156112ca573d6000803e3d6000fd5b5050600554600186015460028701546040516323b872dd60e01b81526001600160a01b0392831660048201523360248201526044810191909152911692506323b872dd91506064016020604051808303816000875af1158015611331573d6000803e3d6000fd5b505050506040513d601f19601f82011682018060405250810190611355919061221e565b61139a5760405162461bcd60e51b8152602060048201526016602482015275115b995c99de481d1c985b9cd9995c8819985a5b195960521b6044820152606401610b04565b60006004600081546113ab906120ab565b918290555060408051610120810182528281526020810189905233918101919091526001808701546001600160a01b0316606083015260028701546080830152600487015460a08301524260c08301529192509060e0820190815260200185600701805461141890611ff1565b80601f016020809104026020016040519081016040528092919081815260200182805461144490611ff1565b80156114915780601f1061146657610100808354040283529160200191611491565b820191906000526020600020905b81548152906001019060200180831161147457829003601f168201915b5050509190925250506000828152600960209081526040918290208351815590830151600180830191909155918301516002820180546001600160a01b03199081166001600160a01b0393841617909155606085015160038085018054909316919093161790556080840151600483015560a0840151600583015560c0840151600683015560e084015160078301805493949193909260ff199091169190849081111561154057611540611bd2565b0217905550610100820151600882019061155a908261214b565b5050506002840154336000908152600a60205260408120805490919061158190849061223b565b90915550506004840154336000908152600a6020526040812060010180549091906115ad90849061223b565b9091555050336000908152600a602052604081206003018054916115d0836120ab565b9091555050600284015460018501546001600160a01b03166000908152600a60205260408120805490919061160690849061223b565b909155505060018401546001600160a01b03166000908152600a60205260408120600201805484929061163a90849061223b565b909155505060018401546001600160a01b03166000908152600a6020526040812060030180549161166a836120ab565b9091555050336000818152600c602090815260408083208054600180820183559185528385200186905588810180546001600160a01b0390811686528386208054938401815586529484902090910186905560068901805460ff1916905554600289015460048a0154835192909516825292810192909252810191909152879083907f15e0d41a04dd94271eba462c33812ee3d36a08eddcf7e4cff32f9ef872dea02e9060600160405180910390a460405181907f60f91a26281f20fb528663f4da55773c83e2ee8a7a5dddb6d1753749e81dc49b90600090a2935050505061175260018055565b919050565b600082815260208190526040902060010154611772816118d3565b6107eb838361196f565b611784611a8f565b600081815260086020526040902060018101546001600160a01b031633146117e05760405162461bcd60e51b815260206004820152600f60248201526e2737ba1037b33332b91037bbb732b960891b6044820152606401610b04565b600681015460ff166118275760405162461bcd60e51b815260206004820152601060248201526f4f66666572206e6f742061637469766560801b6044820152606401610b04565b60068101805460ff191690556005546002820154604051637c40532560e01b81526001600160a01b0390921691637c4053259161186a9160040190815260200190565b600060405180830381600087803b15801561188457600080fd5b505af1158015611898573d6000803e3d6000fd5b50506040513392508491507f1f51377b3e685a0e2419f9bb4ba7c07ec54936353ba3d0fb3c6538dab676622290600090a35061084960018055565b6108498133611ab9565b60006118e98383610b49565b611967576000838152602081815260408083206001600160a01b03861684529091529020805460ff1916600117905561191f3390565b6001600160a01b0316826001600160a01b0316847f2f8788117e7eff1d82e926ec794901d17c78024a50270940304540a733656f0d60405160405180910390a4506001610593565b506000610593565b600061197b8383610b49565b15611967576000838152602081815260408083206001600160a01b0386168085529252808320805460ff1916905551339286917ff6391f5c32d9c69d2a47ea670b442974b53935d1edc7fd64eb21e047a839171b9190a4506001610593565b6119e2611af6565b6002805460ff191690557f5db9ee0a495bf2e6ff9c91a7834c1ba4fdd244a5e8aa4e537bd38aeae4b073aa335b6040516001600160a01b03909116815260200160405180910390a1565b611a34611a69565b6002805460ff191660011790557f62e78cea01bee320cd4e420270b5ea74000d11b0c9f74754ebdbfc544b05a258611a0f3390565b60025460ff1615611a8d5760405163d93c066560e01b815260040160405180910390fd5b565b600260015403611ab257604051633ee5aeb560e01b815260040160405180910390fd5b6002600155565b611ac38282610b49565b611af25760405163e2517d3f60e01b81526001600160a01b038216600482015260248101839052604401610b04565b5050565b60025460ff16611a8d57604051638dfc202b60e01b815260040160405180910390fd5b604051806101200160405280600081526020016000815260200160006001600160a01b0316815260200160006001600160a01b0316815260200160008152602001600081526020016000815260200160006003811115611b7b57611b7b611bd2565b8152602001606081525090565b600060208284031215611b9a57600080fd5b81356001600160e01b031981168114611bb257600080fd5b9392505050565b600060208284031215611bcb57600080fd5b5035919050565b634e487b7160e01b600052602160045260246000fd5b60048110611c0657634e487b7160e01b600052602160045260246000fd5b9052565b6000815180845260005b81811015611c3057602081850181015186830182015201611c14565b506000602082860101526020601f19601f83011685010191505092915050565b898152602081018990526001600160a01b038881166040830152871660608201526080810186905260a0810185905260c081018490526000610120611c9860e0840186611be8565b80610100840152611cab81840185611c0a565b9c9b505050505050505050505050565b60208152815160208201526020820151604082015260006040830151611cec60608401826001600160a01b03169052565b5060608301516001600160a01b038116608084015250608083015160a083015260a083015160c083015260c083015160e083015260e0830151610100611d3481850183611be8565b840151610120848101529050611d4e610140840182611c0a565b949350505050565b80356001600160a01b038116811461175257600080fd5b60008060408385031215611d8057600080fd5b82359150611d9060208401611d56565b90509250929050565b600060208284031215611dab57600080fd5b611bb282611d56565b602081528151602082015260006020830151611ddb60408401826001600160a01b03169052565b506040830151606083015260608301516080830152608083015160a083015260a083015160c083015260c0830151611e1760e084018215159052565b5060e0830151610100611d348185018315159052565b6020808252825182820181905260009190848201906040850190845b81811015611e6557835183529284019291840191600101611e49565b50909695505050505050565b60006101208b835260018060a01b038b1660208401528960408401528860608401528760808401528660a084015285151560c084015284151560e084015280610100840152611cab81840185611c0a565b60008060408385031215611ed557600080fd5b611ede83611d56565b946020939093013593505050565b801515811461084957600080fd5b634e487b7160e01b600052604160045260246000fd5b600080600080600060a08688031215611f2857600080fd5b8535945060208601359350604086013592506060860135611f4881611eec565b9150608086013567ffffffffffffffff80821115611f6557600080fd5b818801915088601f830112611f7957600080fd5b813581811115611f8b57611f8b611efa565b604051601f8201601f19908116603f01168101908382118183101715611fb357611fb3611efa565b816040528281528b6020848701011115611fcc57600080fd5b8260208601602083013760006020848301015280955050505050509295509295909350565b600181811c9082168061200557607f821691505b60208210810361202557634e487b7160e01b600052602260045260246000fd5b50919050565b805169ffffffffffffffffffff8116811461175257600080fd5b600080600080600060a0868803121561205d57600080fd5b6120668661202b565b94506020860151935060408601519250606086015191506120896080870161202b565b90509295509295909350565b634e487b7160e01b600052601160045260246000fd5b6000600182016120bd576120bd612095565b5060010190565b808202811582820484141761059357610593612095565b6000826120f857634e487b7160e01b600052601260045260246000fd5b500490565b601f82111561082457600081815260208120601f850160051c810160208610156121245750805b601f850160051c820191505b8181101561214357828155600101612130565b505050505050565b815167ffffffffffffffff81111561216557612165611efa565b612179816121738454611ff1565b846120fd565b602080601f8311600181146121ae57600084156121965750858301515b600019600386901b1c1916600185901b178555612143565b600085815260208120601f198616915b828110156121dd578886015182559484019460019091019084016121be565b50858210156121fb5787850151600019600388901b60f8161c191681555b5050505050600190811b01905550565b8181038181111561059357610593612095565b60006020828403121561223057600080fd5b8151611bb281611eec565b808201808211156105935761059361209556fe71840dc4906352362b0cdaf79870196c8e42acafade72d5d5a6d59291253ceb1a264697066735822122004c8a513498dd4c5aea3e47a09eb0c102973903590ab98e454f4b99d313e135264736f6c63430008140033",
  "linkReferences": {},
  "deployedLinkReferences": {}
}