{
  "_format": "hh-sol-artifact-1",
  "contractName": "EnergyTrading",
  "sourceName": "contracts/EnergyTrading.sol",
  "abi": [
    {
      "inputs": [
        {
          "internalType": "address",
          "name": "_energyTokenAddress",
          "type": "address"
        }
      ],
      "stateMutability": "nonpayable",
      "type": "constructor"
    },
    {
      "anonymous": false,
      "inputs": [
        {
          "indexed": false,
          "internalType": "uint256",
          "name": "tradeId",
          "type": "uint256"
        },
        {
          "indexed": false,
          "internalType": "address",
          "name": "buyer",
          "type": "address"
        }
      ],
      "name": "TradeCompleted",
      "type": "event"
    },
    {
      "anonymous": false,
      "inputs": [
        {
          "indexed": false,
          "internalType": "uint256",
          "name": "tradeId",
          "type": "uint256"
        },
        {
          "indexed": false,
          "internalType": "address",
          "name": "seller",
          "type": "address"
        },
        {
          "indexed": false,
          "internalType": "uint256",
          "name": "kWh",
          "type": "uint256"
        },
        {
          "indexed": false,
          "internalType": "uint256",
          "name": "pricePerkWh",
          "type": "uint256"
        }
      ],
      "name": "TradeCreated",
      "type": "event"
    },
    {
      "inputs": [
        {
          "internalType": "uint256",
          "name": "kWh",
          "type": "uint256"
        },
        {
          "internalType": "uint256",
          "name": "pricePerkWh",
          "type": "uint256"
        }
      ],
      "name": "createTrade",
      "outputs": [],
      "stateMutability": "nonpayable",
      "type": "function"
    },
    {
      "inputs": [],
      "name": "energyToken",
      "outputs": [
        {
          "internalType": "contract EnergyToken",
          "name": "",
          "type": "address"
        }
      ],
      "stateMutability": "view",
      "type": "function"
    },
    {
      "inputs": [
        {
          "internalType": "uint256",
          "name": "tradeId",
          "type": "uint256"
        }
      ],
      "name": "executeTrade",
      "outputs": [],
      "stateMutability": "payable",
      "type": "function"
    },
    {
      "inputs": [],
      "name": "owner",
      "outputs": [
        {
          "internalType": "address",
          "name": "",
          "type": "address"
        }
      ],
      "stateMutability": "view",
      "type": "function"
    },
    {
      "inputs": [
        {
          "internalType": "uint256",
          "name": "tradeId",
          "type": "uint256"
        },
        {
          "internalType": "address",
          "name": "resolutionTo",
          "type": "address"
        }
      ],
      "name": "resolveDispute",
      "outputs": [],
      "stateMutability": "nonpayable",
      "type": "function"
    },
    {
      "inputs": [],
      "name": "tradeCounter",
      "outputs": [
        {
          "internalType": "uint256",
          "name": "",
          "type": "uint256"
        }
      ],
      "stateMutability": "view",
      "type": "function"
    },
    {
      "inputs": [
        {
          "internalType": "uint256",
          "name": "",
          "type": "uint256"
        }
      ],
      "name": "trades",
      "outputs": [
        {
          "internalType": "address",
          "name": "seller",
          "type": "address"
        },
        {
          "internalType": "address",
          "name": "buyer",
          "type": "address"
        },
        {
          "internalType": "uint256",
          "name": "kWh",
          "type": "uint256"
        },
        {
          "internalType": "uint256",
          "name": "pricePerkWh",
          "type": "uint256"
        },
        {
          "internalType": "bool",
          "name": "completed",
          "type": "bool"
        }
      ],
      "stateMutability": "view",
      "type": "function"
    },
    {
      "inputs": [
        {
          "internalType": "address",
          "name": "tokenAddress",
          "type": "address"
        }
      ],
      "name": "withdrawStuckTokens",
      "outputs": [],
      "stateMutability": "nonpayable",
      "type": "function"
    }
  ],
  "bytecode": "0x608060405234801561001057600080fd5b50604051610e5f380380610e5f83398101604081905261002f91610060565b600080546001600160a01b039092166001600160a01b03199283161790556001805490911633178155600355610090565b60006020828403121561007257600080fd5b81516001600160a01b038116811461008957600080fd5b9392505050565b610dc08061009f6000396000f3fe60806040526004361061007b5760003560e01c8063660d15b51161004e578063660d15b5146101815780638da5cb5b146101a557806396463fc6146101c5578063cb963728146101e557600080fd5b806302d2838b146100805780630e33599d146100955780631e6c598e146100b55780634ec7fb8114610149575b600080fd5b61009361008e366004610b48565b610205565b005b3480156100a157600080fd5b506100936100b0366004610b7d565b61051f565b3480156100c157600080fd5b5061010f6100d0366004610b48565b6002602081905260009182526040909120805460018201549282015460038301546004909301546001600160a01b039283169490921692909160ff1685565b604080516001600160a01b0396871681529590941660208601529284019190915260608301521515608082015260a0015b60405180910390f35b34801561015557600080fd5b50600054610169906001600160a01b031681565b6040516001600160a01b039091168152602001610140565b34801561018d57600080fd5b5061019760035481565b604051908152602001610140565b3480156101b157600080fd5b50600154610169906001600160a01b031681565b3480156101d157600080fd5b506100936101e0366004610ba9565b61073c565b3480156101f157600080fd5b50610093610200366004610bcb565b610a11565b6000818152600260205260409020600481015460ff16156102675760405162461bcd60e51b8152602060048201526017602482015276151c98591948185b1c9958591e4818dbdb5c1b195d1959604a1b60448201526064015b60405180910390fd5b60018101546001600160a01b0316156102c25760405162461bcd60e51b815260206004820152601960248201527f547261646520616c726561647920686173206120627579657200000000000000604482015260640161025e565b6000816003015482600201546102d89190610c03565b90508034146103295760405162461bcd60e51b815260206004820152601860248201527f496e636f7272656374207061796d656e7420616d6f756e740000000000000000604482015260640161025e565b81546040516001600160a01b039091169082156108fc029083906000818181858888f19350505050158015610362573d6000803e3d6000fd5b5060008060009054906101000a90046001600160a01b03166001600160a01b031663313ce5676040518163ffffffff1660e01b8152600401602060405180830381865afa1580156103b7573d6000803e3d6000fd5b505050506040513d601f19601f820116820180604052508101906103db9190610c20565b6103e690600a610d27565b83600201546103f59190610c03565b60005460405163a9059cbb60e01b8152336004820152602481018390529192506001600160a01b03169063a9059cbb906044016020604051808303816000875af1158015610447573d6000803e3d6000fd5b505050506040513d601f19601f8201168201806040525081019061046b9190610d36565b6104b75760405162461bcd60e51b815260206004820152601e60248201527f546f6b656e207472616e7366657220746f206275796572206661696c65640000604482015260640161025e565b600183810180546001600160a01b0319163390811790915560048501805460ff19169092179091556040805186815260208101929092527f426b87d30760ed04a097c0113c943b597a538ae1483a0386bca1ea9380947aa1910160405180910390a150505050565b6001546001600160a01b0316331461056a5760405162461bcd60e51b815260206004820152600e60248201526d139bdd08185d5d1a1bdc9a5e995960921b604482015260640161025e565b6000828152600260205260409020600481015460ff16156105c75760405162461bcd60e51b8152602060048201526017602482015276151c98591948185b1c9958591e4818dbdb5c1b195d1959604a1b604482015260640161025e565b60008060009054906101000a90046001600160a01b03166001600160a01b031663313ce5676040518163ffffffff1660e01b8152600401602060405180830381865afa15801561061b573d6000803e3d6000fd5b505050506040513d601f19601f8201168201806040525081019061063f9190610c20565b61064a90600a610d27565b82600201546106599190610c03565b60005460405163a9059cbb60e01b81526001600160a01b0386811660048301526024820184905292935091169063a9059cbb906044016020604051808303816000875af11580156106ae573d6000803e3d6000fd5b505050506040513d601f19601f820116820180604052508101906106d29190610d36565b6107295760405162461bcd60e51b815260206004820152602260248201527f44697370757465207265736f6c7574696f6e207472616e73666572206661696c604482015261195960f21b606482015260840161025e565b50600401805460ff191660011790555050565b6000821161078c5760405162461bcd60e51b815260206004820152601e60248201527f456e6572677920616d6f756e74206d75737420626520706f7369746976650000604482015260640161025e565b600081116107d55760405162461bcd60e51b81526020600482015260166024820152755072696365206d75737420626520706f73697469766560501b604482015260640161025e565b60008060009054906101000a90046001600160a01b03166001600160a01b031663313ce5676040518163ffffffff1660e01b8152600401602060405180830381865afa158015610829573d6000803e3d6000fd5b505050506040513d601f19601f8201168201806040525081019061084d9190610c20565b61085890600a610d27565b6108629084610c03565b6000546040516323b872dd60e01b8152336004820152306024820152604481018390529192506001600160a01b0316906323b872dd906064016020604051808303816000875af11580156108ba573d6000803e3d6000fd5b505050506040513d601f19601f820116820180604052508101906108de9190610d36565b6109225760405162461bcd60e51b8152602060048201526015602482015274151bdad95b881d1c985b9cd9995c8819985a5b1959605a1b604482015260640161025e565b6040805160a081018252338082526000602080840182815284860189815260608087018a815260808089018781526003805489526002808952988c90209a518b546001600160a01b03199081166001600160a01b03928316178d55975160018d018054909916911617909655935196890196909655518784015590516004909601805460ff191696151596909617909555548551908152908101929092529281018690529081018490527fd0e9aa5556e03c447575bd31d7a883384c075015de0184785193f025fbfd5451910160405180910390a160038054906000610a0783610d58565b9190505550505050565b6001546001600160a01b03163314610a5c5760405162461bcd60e51b815260206004820152600e60248201526d139bdd08185d5d1a1bdc9a5e995960921b604482015260640161025e565b6040516370a0823160e01b815230600482015281906000906001600160a01b038316906370a0823190602401602060405180830381865afa158015610aa5573d6000803e3d6000fd5b505050506040513d601f19601f82011682018060405250810190610ac99190610d71565b60015460405163a9059cbb60e01b81526001600160a01b0391821660048201526024810183905291925083169063a9059cbb906044016020604051808303816000875af1158015610b1e573d6000803e3d6000fd5b505050506040513d601f19601f82011682018060405250810190610b429190610d36565b50505050565b600060208284031215610b5a57600080fd5b5035919050565b80356001600160a01b0381168114610b7857600080fd5b919050565b60008060408385031215610b9057600080fd5b82359150610ba060208401610b61565b90509250929050565b60008060408385031215610bbc57600080fd5b50508035926020909101359150565b600060208284031215610bdd57600080fd5b610be682610b61565b9392505050565b634e487b7160e01b600052601160045260246000fd5b8082028115828204841417610c1a57610c1a610bed565b92915050565b600060208284031215610c3257600080fd5b815160ff81168114610be657600080fd5b600181815b80851115610c7e578160001904821115610c6457610c64610bed565b80851615610c7157918102915b93841c9390800290610c48565b509250929050565b600082610c9557506001610c1a565b81610ca257506000610c1a565b8160018114610cb85760028114610cc257610cde565b6001915050610c1a565b60ff841115610cd357610cd3610bed565b50506001821b610c1a565b5060208310610133831016604e8410600b8410161715610d01575081810a610c1a565b610d0b8383610c43565b8060001904821115610d1f57610d1f610bed565b029392505050565b6000610be660ff841683610c86565b600060208284031215610d4857600080fd5b81518015158114610be657600080fd5b600060018201610d6a57610d6a610bed565b5060010190565b600060208284031215610d8357600080fd5b505191905056fea26469706673582212202da995ba2be63350d8a0f37143a94b12c282f08080a237f3a6bd9b2aa5f103a464736f6c63430008140033",
  "linkReferences": {},
  "deployedLinkReferences": {}
}