{
  "_format": "hh-sol-artifact-1",
  "contractName": "EnergyToken",
  "sourceName": "contracts/EnergyToken.sol",
  "abi": [
    {
      "inputs": [
        {
          "internalType": "address",
          "name": "_governanceAddress",
          "type": "address"
        }
      ],
      "stateMutability": "nonpayable",
      "type": "constructor"
    },
    {
      "inputs": [],
      "name": "AccessControlBadConfirmation",
      "type": "error"
    },
    {
      "inputs": [
        {
          "internalType": "address",
          "name": "account",
          "type": "address"
        },
        {
          "internalType": "bytes32",
          "name": "neededRole",
          "type": "bytes32"
        }
      ],
      "name": "AccessControlUnauthorizedAccount",
      "type": "error"
    },
    {
      "inputs": [
        {
          "internalType": "address",
          "name": "spender",
          "type": "address"
        },
        {
          "internalType": "uint256",
          "name": "allowance",
          "type": "uint256"
        },
        {
          "internalType": "uint256",
          "name": "needed",
          "type": "uint256"
        }
      ],
      "name": "ERC20InsufficientAllowance",
      "type": "error"
    },
    {
      "inputs": [
        {
          "internalType": "address",
          "name": "sender",
          "type": "address"
        },
        {
          "internalType": "uint256",
          "name": "balance",
          "type": "uint256"
        },
        {
          "internalType": "uint256",
          "name": "needed",
          "type": "uint256"
        }
      ],
      "name": "ERC20InsufficientBalance",
      "type": "error"
    },
    {
      "inputs": [
        {
          "internalType": "address",
          "name": "approver",
          "type": "address"
        }
      ],
      "name": "ERC20InvalidApprover",
      "type": "error"
    },
    {
      "inputs": [
        {
          "internalType": "address",
          "name": "receiver",
          "type": "address"
        }
      ],
      "name": "ERC20InvalidReceiver",
      "type": "error"
    },
    {
      "inputs": [
        {
          "internalType": "address",
          "name": "sender",
          "type": "address"
        }
      ],
      "name": "ERC20InvalidSender",
      "type": "error"
    },
    {
      "inputs": [
        {
          "internalType": "address",
          "name": "spender",
          "type": "address"
        }
      ],
      "name": "ERC20InvalidSpender",
      "type": "error"
    },
    {
      "anonymous": false,
      "inputs": [
        {
          "indexed": true,
          "internalType": "address",
          "name": "owner",
          "type": "address"
        },
        {
          "indexed": true,
          "internalType": "address",
          "name": "spender",
          "type": "address"
        },
        {
          "indexed": false,
          "internalType": "uint256",
          "name": "value",
          "type": "uint256"
        }
      ],
      "name": "Approval",
      "type": "event"
    },
    {
      "anonymous": false,
      "inputs": [
        {
          "indexed": true,
          "internalType": "bytes32",
          "name": "role",
          "type": "bytes32"
        },
        {
          "indexed": true,
          "internalType": "bytes32",
          "name": "previousAdminRole",
          "type": "bytes32"
        },
        {
          "indexed": true,
          "internalType": "bytes32",
          "name": "newAdminRole",
          "type": "bytes32"
        }
      ],
      "name": "RoleAdminChanged",
      "type": "event"
    },
    {
      "anonymous": false,
      "inputs": [
        {
          "indexed": true,
          "internalType": "bytes32",
          "name": "role",
          "type": "bytes32"
        },
        {
          "indexed": true,
          "internalType": "address",
          "name": "account",
          "type": "address"
        },
        {
          "indexed": true,
          "internalType": "address",
          "name": "sender",
          "type": "address"
        }
      ],
      "name": "RoleGranted",
      "type": "event"
    },
    {
      "anonymous": false,
      "inputs": [
        {
          "indexed": true,
          "internalType": "bytes32",
          "name": "role",
          "type": "bytes32"
        },
        {
          "indexed": true,
          "internalType": "address",
          "name": "account",
          "type": "address"
        },
        {
          "indexed": true,
          "internalType": "address",
          "name": "sender",
          "type": "address"
        }
      ],
      "name": "RoleRevoked",
      "type": "event"
    },
    {
      "anonymous": false,
      "inputs": [
        {
          "indexed": true,
          "internalType": "address",
          "name": "from",
          "type": "address"
        },
        {
          "indexed": false,
          "internalType": "uint256",
          "name": "amount",
          "type": "uint256"
        }
      ],
      "name": "TokensBurned",
      "type": "event"
    },
    {
      "anonymous": false,
      "inputs": [
        {
          "indexed": true,
          "internalType": "address",
          "name": "account",
          "type": "address"
        },
        {
          "indexed": false,
          "internalType": "uint256",
          "name": "amount",
          "type": "uint256"
        }
      ],
      "name": "TokensLocked",
      "type": "event"
    },
    {
      "anonymous": false,
      "inputs": [
        {
          "indexed": true,
          "internalType": "address",
          "name": "to",
          "type": "address"
        },
        {
          "indexed": false,
          "internalType": "uint256",
          "name": "amount",
          "type": "uint256"
        }
      ],
      "name": "TokensMinted",
      "type": "event"
    },
    {
      "anonymous": false,
      "inputs": [
        {
          "indexed": true,
          "internalType": "address",
          "name": "account",
          "type": "address"
        },
        {
          "indexed": false,
          "internalType": "uint256",
          "name": "amount",
          "type": "uint256"
        }
      ],
      "name": "TokensUnlocked",
      "type": "event"
    },
    {
      "anonymous": false,
      "inputs": [
        {
          "indexed": true,
          "internalType": "address",
          "name": "from",
          "type": "address"
        },
        {
          "indexed": true,
          "internalType": "address",
          "name": "to",
          "type": "address"
        },
        {
          "indexed": false,
          "internalType": "uint256",
          "name": "value",
          "type": "uint256"
        }
      ],
      "name": "Transfer",
      "type": "event"
    },
    {
      "inputs": [],
      "name": "DEFAULT_ADMIN_ROLE",
      "outputs": [
        {
          "internalType": "bytes32",
          "name": "",
          "type": "bytes32"
        }
      ],
      "stateMutability": "view",
      "type": "function"
    },
    {
      "inputs": [],
      "name": "MINTER_ROLE",
      "outputs": [
        {
          "internalType": "bytes32",
          "name": "",
          "type": "bytes32"
        }
      ],
      "stateMutability": "view",
      "type": "function"
    },
    {
      "inputs": [
        {
          "internalType": "address",
          "name": "owner",
          "type": "address"
        },
        {
          "internalType": "address",
          "name": "spender",
          "type": "address"
        }
      ],
      "name": "allowance",
      "outputs": [
        {
          "internalType": "uint256",
          "name": "",
          "type": "uint256"
        }
      ],
      "stateMutability": "view",
      "type": "function"
    },
    {
      "inputs": [
        {
          "internalType": "address",
          "name": "spender",
          "type": "address"
        },
        {
          "internalType": "uint256",
          "name": "value",
          "type": "uint256"
        }
      ],
      "name": "approve",
      "outputs": [
        {
          "internalType": "bool",
          "name": "",
          "type": "bool"
        }
      ],
      "stateMutability": "nonpayable",
      "type": "function"
    },
    {
      "inputs": [
        {
          "internalType": "address",
          "name": "account",
          "type": "address"
        }
      ],
      "name": "balanceOf",
      "outputs": [
        {
          "internalType": "uint256",
          "name": "",
          "type": "uint256"
        }
      ],
      "stateMutability": "view",
      "type": "function"
    },
    {
      "inputs": [
        {
          "internalType": "uint256",
          "name": "amount",
          "type": "uint256"
        }
      ],
      "name": "burn",
      "outputs": [],
      "stateMutability": "nonpayable",
      "type": "function"
    },
    {
      "inputs": [],
      "name": "decimals",
      "outputs": [
        {
          "internalType": "uint8",
          "name": "",
          "type": "uint8"
        }
      ],
      "stateMutability": "view",
      "type": "function"
    },
    {
      "inputs": [
        {
          "internalType": "address",
          "name": "account",
          "type": "address"
        }
      ],
      "name": "getAvailableBalance",
      "outputs": [
        {
          "internalType": "uint256",
          "name": "",
          "type": "uint256"
        }
      ],
      "stateMutability": "view",
      "type": "function"
    },
    {
      "inputs": [
        {
          "internalType": "address",
          "name": "account",
          "type": "address"
        }
      ],
      "name": "getLockedTokens",
      "outputs": [
        {
          "internalType": "uint256",
          "name": "",
          "type": "uint256"
        }
      ],
      "stateMutability": "view",
      "type": "function"
    },
    {
      "inputs": [
        {
          "internalType": "bytes32",
          "name": "role",
          "type": "bytes32"
        }
      ],
      "name": "getRoleAdmin",
      "outputs": [
        {
          "internalType": "bytes32",
          "name": "",
          "type": "bytes32"
        }
      ],
      "stateMutability": "view",
      "type": "function"
    },
    {
      "inputs": [
        {
          "internalType": "bytes32",
          "name": "role",
          "type": "bytes32"
        },
        {
          "internalType": "address",
          "name": "account",
          "type": "address"
        }
      ],
      "name": "grantRole",
      "outputs": [],
      "stateMutability": "nonpayable",
      "type": "function"
    },
    {
      "inputs": [
        {
          "internalType": "bytes32",
          "name": "role",
          "type": "bytes32"
        },
        {
          "internalType": "address",
          "name": "account",
          "type": "address"
        }
      ],
      "name": "hasRole",
      "outputs": [
        {
          "internalType": "bool",
          "name": "",
          "type": "bool"
        }
      ],
      "stateMutability": "view",
      "type": "function"
    },
    {
      "inputs": [
        {
          "internalType": "uint256",
          "name": "amount",
          "type": "uint256"
        }
      ],
      "name": "lockTokens",
      "outputs": [],
      "stateMutability": "nonpayable",
      "type": "function"
    },
    {
      "inputs": [
        {
          "internalType": "address",
          "name": "to",
          "type": "address"
        },
        {
          "internalType": "uint256",
          "name": "amount",
          "type": "uint256"
        }
      ],
      "name": "mint",
      "outputs": [],
      "stateMutability": "nonpayable",
      "type": "function"
    },
    {
      "inputs": [],
      "name": "name",
      "outputs": [
        {
          "internalType": "string",
          "name": "",
          "type": "string"
        }
      ],
      "stateMutability": "view",
      "type": "function"
    },
    {
      "inputs": [
        {
          "internalType": "bytes32",
          "name": "role",
          "type": "bytes32"
        },
        {
          "internalType": "address",
          "name": "callerConfirmation",
          "type": "address"
        }
      ],
      "name": "renounceRole",
      "outputs": [],
      "stateMutability": "nonpayable",
      "type": "function"
    },
    {
      "inputs": [
        {
          "internalType": "bytes32",
          "name": "role",
          "type": "bytes32"
        },
        {
          "internalType": "address",
          "name": "account",
          "type": "address"
        }
      ],
      "name": "revokeRole",
      "outputs": [],
      "stateMutability": "nonpayable",
      "type": "function"
    },
    {
      "inputs": [
        {
          "internalType": "bytes4",
          "name": "interfaceId",
          "type": "bytes4"
        }
      ],
      "name": "supportsInterface",
      "outputs": [
        {
          "internalType": "bool",
          "name": "",
          "type": "bool"
        }
      ],
      "stateMutability": "view",
      "type": "function"
    },
    {
      "inputs": [],
      "name": "symbol",
      "outputs": [
        {
          "internalType": "string",
          "name": "",
          "type": "string"
        }
      ],
      "stateMutability": "view",
      "type": "function"
    },
    {
      "inputs": [],
      "name": "totalSupply",
      "outputs": [
        {
          "internalType": "uint256",
          "name": "",
          "type": "uint256"
        }
      ],
      "stateMutability": "view",
      "type": "function"
    },
    {
      "inputs": [
        {
          "internalType": "address",
          "name": "to",
          "type": "address"
        },
        {
          "internalType": "uint256",
          "name": "amount",
          "type": "uint256"
        }
      ],
      "name": "transfer",
      "outputs": [
        {
          "internalType": "bool",
          "name": "",
          "type": "bool"
        }
      ],
      "stateMutability": "nonpayable",
      "type": "function"
    },
    {
      "inputs": [
        {
          "internalType": "address",
          "name": "from",
          "type": "address"
        },
        {
          "internalType": "address",
          "name": "to",
          "type": "address"
        },
        {
          "internalType": "uint256",
          "name": "amount",
          "type": "uint256"
        }
      ],
      "name": "transferFrom",
      "outputs": [
        {
          "internalType": "bool",
          "name": "",
          "type": "bool"
        }
      ],
      "stateMutability": "nonpayable",
      "type": "function"
    },
    {
      "inputs": [
        {
          "internalType": "uint256",
          "name": "amount",
          "type": "uint256"
        }
      ],
      "name": "unlockTokens",
      "outputs": [],
      "stateMutability": "nonpayable",
      "type": "function"
    }
  ],
  "bytecode": "0x60806040523480156200001157600080fd5b50604051620016e8380380620016e88339810160408190526200003491620003ab565b6040518060400160405280601781526020017f456e65726c656374726120456e6572677920546f6b656e000000000000000000815250604051806040016040528060038152602001620d6aed60eb1b815250816003908162000097919062000482565b506004620000a6828262000482565b5050506001600160a01b0381166200010f5760405162461bcd60e51b815260206004820152602160248201527f476f7665726e616e636520616464726573732063616e6e6f74206265207a65726044820152606f60f81b60648201526084015b60405180910390fd5b6200011c60008262000187565b50620001497f9f2df0fed2c77648de5860a4cc508cd0818c85b8b8a1ab4ceeef8d981c8956a68262000187565b506200015760003362000187565b5062000180336200016b6012600a62000661565b6200017a90620f424062000672565b6200023a565b50620006a2565b60008281526005602090815260408083206001600160a01b038516845290915281205460ff16620002305760008381526005602090815260408083206001600160a01b03861684529091529020805460ff19166001179055620001e73390565b6001600160a01b0316826001600160a01b0316847f2f8788117e7eff1d82e926ec794901d17c78024a50270940304540a733656f0d60405160405180910390a450600162000234565b5060005b92915050565b6001600160a01b038216620002665760405163ec442f0560e01b81526000600482015260240162000106565b620002746000838362000278565b5050565b6001600160a01b038316620002a75780600260008282546200029b91906200068c565b909155506200031b9050565b6001600160a01b03831660009081526020819052604090205481811015620002fc5760405163391434e360e21b81526001600160a01b0385166004820152602481018290526044810183905260640162000106565b6001600160a01b03841660009081526020819052604090209082900390555b6001600160a01b038216620003395760028054829003905562000358565b6001600160a01b03821660009081526020819052604090208054820190555b816001600160a01b0316836001600160a01b03167fddf252ad1be2c89b69c2b068fc378daa952ba7f163c4a11628f55a4df523b3ef836040516200039e91815260200190565b60405180910390a3505050565b600060208284031215620003be57600080fd5b81516001600160a01b0381168114620003d657600080fd5b9392505050565b634e487b7160e01b600052604160045260246000fd5b600181811c908216806200040857607f821691505b6020821081036200042957634e487b7160e01b600052602260045260246000fd5b50919050565b601f8211156200047d57600081815260208120601f850160051c81016020861015620004585750805b601f850160051c820191505b81811015620004795782815560010162000464565b5050505b505050565b81516001600160401b038111156200049e576200049e620003dd565b620004b681620004af8454620003f3565b846200042f565b602080601f831160018114620004ee5760008415620004d55750858301515b600019600386901b1c1916600185901b17855562000479565b600085815260208120601f198616915b828110156200051f57888601518255948401946001909101908401620004fe565b50858210156200053e5787850151600019600388901b60f8161c191681555b5050505050600190811b01905550565b634e487b7160e01b600052601160045260246000fd5b600181815b80851115620005a55781600019048211156200058957620005896200054e565b808516156200059757918102915b93841c939080029062000569565b509250929050565b600082620005be5750600162000234565b81620005cd5750600062000234565b8160018114620005e65760028114620005f15762000611565b600191505062000234565b60ff8411156200060557620006056200054e565b50506001821b62000234565b5060208310610133831016604e8410600b841016171562000636575081810a62000234565b62000642838362000564565b80600019048211156200065957620006596200054e565b029392505050565b6000620003d660ff841683620005ad565b80820281158282048414176200023457620002346200054e565b808201808211156200023457620002346200054e565b61103680620006b26000396000f3fe608060405234801561001057600080fd5b506004361061014d5760003560e01c80636b2d95d4116100c357806395d89b411161007c57806395d89b41146102e5578063a217fddf146102ed578063a9059cbb146102f5578063d539139314610308578063d547741f1461032f578063dd62ed3e1461034257600080fd5b80636b2d95d4146102475780636c24a76f146102705780636e27d8891461028357806370a08231146102965780637c405325146102bf57806391d14854146102d257600080fd5b8063248a9ca311610115578063248a9ca3146101c75780632f2ff15d146101ea578063313ce567146101ff57806336568abe1461020e57806340c10f191461022157806342966c681461023457600080fd5b806301ffc9a71461015257806306fdde031461017a578063095ea7b31461018f57806318160ddd146101a257806323b872dd146101b4575b600080fd5b610165610160366004610dbe565b61037b565b60405190151581526020015b60405180910390f35b6101826103b2565b6040516101719190610de8565b61016561019d366004610e52565b610444565b6002545b604051908152602001610171565b6101656101c2366004610e7c565b61045c565b6101a66101d5366004610eb8565b60009081526005602052604090206001015490565b6101fd6101f8366004610ed1565b6104c4565b005b60405160128152602001610171565b6101fd61021c366004610ed1565b6104ef565b6101fd61022f366004610e52565b610527565b6101fd610242366004610eb8565b6105f9565b6101a6610255366004610efd565b6001600160a01b031660009081526006602052604090205490565b6101a661027e366004610efd565b61063c565b6101fd610291366004610eb8565b610669565b6101a66102a4366004610efd565b6001600160a01b031660009081526020819052604090205490565b6101fd6102cd366004610eb8565b610789565b6101656102e0366004610ed1565b61083e565b610182610869565b6101a6600081565b610165610303366004610e52565b610878565b6101a67f9f2df0fed2c77648de5860a4cc508cd0818c85b8b8a1ab4ceeef8d981c8956a681565b6101fd61033d366004610ed1565b6108cc565b6101a6610350366004610f18565b6001600160a01b03918216600090815260016020908152604080832093909416825291909152205490565b60006001600160e01b03198216637965db0b60e01b14806103ac57506301ffc9a760e01b6001600160e01b03198316145b92915050565b6060600380546103c190610f42565b80601f01602080910402602001604051908101604052809291908181526020018280546103ed90610f42565b801561043a5780601f1061040f5761010080835404028352916020019161043a565b820191906000526020600020905b81548152906001019060200180831161041d57829003601f168201915b5050505050905090565b6000336104528185856108f1565b5060019392505050565b6001600160a01b03831660009081526006602090815260408083205491839052822054839161048a91610f92565b10156104b15760405162461bcd60e51b81526004016104a890610fa5565b60405180910390fd5b6104bc8484846108fe565b949350505050565b6000828152600560205260409020600101546104df81610922565b6104e9838361092f565b50505050565b6001600160a01b03811633146105185760405163334bd91960e11b815260040160405180910390fd5b61052282826109c3565b505050565b7f9f2df0fed2c77648de5860a4cc508cd0818c85b8b8a1ab4ceeef8d981c8956a661055181610922565b6001600160a01b0383166105a75760405162461bcd60e51b815260206004820152601b60248201527f43616e6e6f74206d696e7420746f207a65726f2061646472657373000000000060448201526064016104a8565b6105b18383610a30565b826001600160a01b03167f3f2c9d57c068687834f0de942a9babb9e5acab57d516d3480a3c16ee165a4273836040516105ec91815260200190565b60405180910390a2505050565b6106033382610a6a565b60405181815233907ffd38818f5291bf0bb3a2a48aadc06ba8757865d1dabd804585338aab3009dcb6906020015b60405180910390a250565b6001600160a01b038116600090815260066020908152604080832054918390528220546103ac9190610f92565b336000908152602081905260409020548111156106bf5760405162461bcd60e51b8152602060048201526014602482015273496e73756666696369656e742062616c616e636560601b60448201526064016104a8565b33600090815260066020908152604080832054918390529091205482916106e591610f92565b10156107335760405162461bcd60e51b815260206004820152601d60248201527f496e73756666696369656e7420756e6c6f636b65642062616c616e636500000060448201526064016104a8565b3360009081526006602052604081208054839290610752908490610fed565b909155505060405181815233907fac87f20a77d28ee8bbb58ec87ea8fa968b3393efae1a368fd50b767c2847391c90602001610631565b336000908152600660205260409020548111156107e85760405162461bcd60e51b815260206004820152601b60248201527f496e73756666696369656e74206c6f636b65642062616c616e6365000000000060448201526064016104a8565b3360009081526006602052604081208054839290610807908490610f92565b909155505060405181815233907fe7b379c6c1fa169e9079c25e9143b127637eef8ec8c9d5c06ddb4ab3e119588890602001610631565b60009182526005602090815260408084206001600160a01b0393909316845291905290205460ff1690565b6060600480546103c190610f42565b3360009081526006602090815260408083205491839052822054839161089d91610f92565b10156108bb5760405162461bcd60e51b81526004016104a890610fa5565b6108c58383610aa0565b9392505050565b6000828152600560205260409020600101546108e781610922565b6104e983836109c3565b6105228383836001610aae565b60003361090c858285610b83565b610917858585610bfc565b506001949350505050565b61092c8133610c5b565b50565b600061093b838361083e565b6109bb5760008381526005602090815260408083206001600160a01b03861684529091529020805460ff191660011790556109733390565b6001600160a01b0316826001600160a01b0316847f2f8788117e7eff1d82e926ec794901d17c78024a50270940304540a733656f0d60405160405180910390a45060016103ac565b5060006103ac565b60006109cf838361083e565b156109bb5760008381526005602090815260408083206001600160a01b0386168085529252808320805460ff1916905551339286917ff6391f5c32d9c69d2a47ea670b442974b53935d1edc7fd64eb21e047a839171b9190a45060016103ac565b6001600160a01b038216610a5a5760405163ec442f0560e01b8152600060048201526024016104a8565b610a6660008383610c94565b5050565b6001600160a01b038216610a9457604051634b637e8f60e11b8152600060048201526024016104a8565b610a6682600083610c94565b600033610452818585610bfc565b6001600160a01b038416610ad85760405163e602df0560e01b8152600060048201526024016104a8565b6001600160a01b038316610b0257604051634a1406b160e11b8152600060048201526024016104a8565b6001600160a01b03808516600090815260016020908152604080832093871683529290522082905580156104e957826001600160a01b0316846001600160a01b03167f8c5be1e5ebec7d5bd14f71427d1e84f3dd0314c0f7b2291e5b200ac8c7c3b92584604051610b7591815260200190565b60405180910390a350505050565b6001600160a01b038381166000908152600160209081526040808320938616835292905220546000198110156104e95781811015610bed57604051637dc7a0d960e11b81526001600160a01b038416600482015260248101829052604481018390526064016104a8565b6104e984848484036000610aae565b6001600160a01b038316610c2657604051634b637e8f60e11b8152600060048201526024016104a8565b6001600160a01b038216610c505760405163ec442f0560e01b8152600060048201526024016104a8565b610522838383610c94565b610c65828261083e565b610a665760405163e2517d3f60e01b81526001600160a01b0382166004820152602481018390526044016104a8565b6001600160a01b038316610cbf578060026000828254610cb49190610fed565b90915550610d319050565b6001600160a01b03831660009081526020819052604090205481811015610d125760405163391434e360e21b81526001600160a01b038516600482015260248101829052604481018390526064016104a8565b6001600160a01b03841660009081526020819052604090209082900390555b6001600160a01b038216610d4d57600280548290039055610d6c565b6001600160a01b03821660009081526020819052604090208054820190555b816001600160a01b0316836001600160a01b03167fddf252ad1be2c89b69c2b068fc378daa952ba7f163c4a11628f55a4df523b3ef83604051610db191815260200190565b60405180910390a3505050565b600060208284031215610dd057600080fd5b81356001600160e01b0319811681146108c557600080fd5b600060208083528351808285015260005b81811015610e1557858101830151858201604001528201610df9565b506000604082860101526040601f19601f8301168501019250505092915050565b80356001600160a01b0381168114610e4d57600080fd5b919050565b60008060408385031215610e6557600080fd5b610e6e83610e36565b946020939093013593505050565b600080600060608486031215610e9157600080fd5b610e9a84610e36565b9250610ea860208501610e36565b9150604084013590509250925092565b600060208284031215610eca57600080fd5b5035919050565b60008060408385031215610ee457600080fd5b82359150610ef460208401610e36565b90509250929050565b600060208284031215610f0f57600080fd5b6108c582610e36565b60008060408385031215610f2b57600080fd5b610f3483610e36565b9150610ef460208401610e36565b600181811c90821680610f5657607f821691505b602082108103610f7657634e487b7160e01b600052602260045260246000fd5b50919050565b634e487b7160e01b600052601160045260246000fd5b818103818111156103ac576103ac610f7c565b60208082526028908201527f5472616e7366657220616d6f756e74206578636565647320756e6c6f636b65646040820152672062616c616e636560c01b606082015260800190565b808201808211156103ac576103ac610f7c56fea2646970667358221220630a9d17b671dee12b1ef8078a36504d545e15dcae167080efa516a1766a32cf64736f6c63430008140033",
  "linkReferences": {},
  "deployedLinkReferences": {}
}